:020000040800F2
:100000004823002051010008BD1E0008C11C000843
:100010005D0100085F0100086101000800000000A8
:10002000000000000000000000000000852500081E
:100030004909000800000000EF210008CD25000854
:100040006B0100086B0100086B0100082B220008FF
:100050006B0100086B0100086B0100086B010008D0
:100060006B0100086B0100086B0100086B010008C0
:100070006B0100086B0100086B0100086B010008B0
:100080006B0100086B0100086B0100086B010008A0
:100090006B0100086B0100086B0100086B01000890
:1000A0006B0100086B0100086B0100086B01000880
:1000B0006B0100086B0100086B0100086B01000870
:1000C0006B0100086B0100086B0100086B01000860
:1000D000293100086B0100086B0100086B01000862
:1000E0006B0100086B0100086B0100086B01000840
:1000F000C51C0008C91C00086B0100086B01000842
:100100006B0100086B0100086B0100086B0100081F
:100110006B0100086B0100086B0100086B0100080F
:100120006B0100086B0100081B0900086B01000847
:100130006B0100086B0100086B010008DFF80CD0B0
:1001400000F096F800480047753B0008482300205F
:100150000648804706480047FEE7FEE7FEE7FEE761
:10016000FEE7FEE7FEE7FEE7FEE7FEE7D125000833
:100170003D0100082DE9F05F0546002092469B46B0
:1001800088460646814640241BE0284641464746AD
:10019000224600F05CF853465A46C01A914110D3EB
:1001A00011461846224600F043F82D1A67EB010865
:1001B0004F4622460120002100F03AF817EB0009D3
:1001C0004E41201EA4F10104DFDC484631462A4698
:1001D0004346BDE8F09F10B540EA01040346A4077A
:1001E00003D009E010C9121F10C3042AFAD203E099
:1001F00011F8014B03F8014B521EF9D210BDD2B2D7
:1002000001E000F8012B491EFBD270470022F6E7FF
:1002100010B513460A4604461946FFF7F0FF20467C
:1002200010BD421C10F8011B0029FBD1801A704739
:10023000202A04DB203A00FA02F1002070479140A6
:10024000C2F1200320FA03F3194390407047202A9B
:1002500004DB203A21FA02F00021704721FA02F370
:10026000D040C2F120029140084319467047000077
:10027000064C074D06E0E06840F0010394E80700F3
:1002800098471034AC42F6D3FFF75CFF00410008FA
:100290003041000870B58C1810F8015B15F00703A9
:1002A00001D110F8013B2A1106D110F8012B03E00F
:1002B00010F8016B01F8016B5B1EF9D12B0705D417
:1002C0000023521E0DD401F8013BFAE710F8013B60
:1002D000CB1A921C03E013F8015B01F8015B521E7C
:1002E000F9D5A142D8D3002070BD000000B587B079
:1002F0001C2205496846FFF76EFF02F04FFA684678
:1003000002F097F807B000BD643E000810B500F099
:10031000F3FB00F0F9FB0548016841F4803101600E
:1003200000F002FBBDE8104000F002B89008005851
:10033000F0B585B014216846FFF768FF0024324B02
:10034000324A2546264620464FF090474FF4806CAF
:1003500002EBC00191F806E0BEF1000F0AD0D1F81F
:1003600000E0BE4549D01EEB030E49D0E64501D161
:1003700089880E43401CC0B22028E9D30020029097
:1003800001200190032003907CB10120009401F032
:10039000EDFC012001F0FBFC6946384600F0F0FC62
:1003A00000222146384600F0A5FD8DB102200095BF
:1003B00001F0DCFC022001F0EAFC134C69466442C7
:1003C000204600F0DDFC00222946204600F092FD88
:1003D000002E10D00420009601F0C8FC042001F08B
:1003E000D6FC0B4C6946204600F0CAFC0022314680
:1003F000204600F07FFD05B0F0BD89880C43B9E7C9
:1004000089880D43B6E7000000FCFFB7643D000893
:100410000008004800B54FF0B04089B0816841F451
:100420000041816002F084FE1549002001F06CFA61
:10043000FFF76CFF0121084602F082FE02F03CF952
:10044000104A0021022002F0A1FE0F4806900F483A
:10045000079006A90E4803F0EBFB0E480090A0F5AC
:1004600086700190A0F5C960029040F23C50039064
:10047000684602F049F902F01DF909B000BD00001C
:1004800000020020013D0008000703209904000835
:100490009B040008180903207047406830F80B1FC0
:1004A000B1F5124F02D1801C00F002B87047000075
:1004B00070B5007800254FF0005488B122A002F0FA
:1004C00079F8002001F0D5FFFF281ED0002821D0A8
:1004D00024A002F06FF80121002000F0EDFDFAE702
:1004E000207802280CD026A002F064F8FFF7FEFE68
:1004F0000021012002F024FEBDE8704000F07AB82F
:1005000025A002F057F8257002E030A002F052F862
:1005100002F038FF33A002F04DF8207802280AD00C
:10052000022020700021084601F090FF01210020E8
:1005300000F0C2FDFAE7257001F0ACFF01210020B8
:1005400000F0BAFDFAE700000D0A46555320697322
:100550002072756E6E696E67206F6E204350553243
:100560002E0A00000D0A416E207570677261646585
:10057000206973206F6E20676F696E672E0A000016
:100580000D0A52756E20746865204170706C696345
:100590006174696F6E2E0A000D0A546865207769D0
:1005A00072656C65737320737461636B207570641E
:1005B00061746520686173206265656E20636F6D8C
:1005C000706C657465642E0A000000000D0A4E56BA
:1005D00049435F53797374656D5265736574282957
:1005E0000A0000000D0A4655532069732069646CA7
:1005F000652E0A0000B591B03022274903A8FFF705
:10060000EAFD26480F90264810900FA9254803F0D0
:1006100079F90121022002F093FD234A00210120F3
:1006200002F0B4FD03A801F0F7FE00F097F801F026
:1006300045FF1E494FF40040086100F087F900F0C3
:100640006BF81B4942790A7202794A72C2788A723F
:100650008278CA7242780A730278521C4A734179CE
:100660008DF8091001798DF80810C1788DF8071000
:1006700081788DF8061041788DF80510007801AA70
:10068000401C8DF804000621002003F0ECF800F077
:1006900011F811B000BD0000B03E00082400032096
:1006A000ED060008FF060008653A00080040005803
:1006B0001E00002000B587B0002003900490059034
:1006C000084A082106908DE807000346A0228021F1
:1006D00002F0F4FE07B004490E205DF804EB02F0CE
:1006E00063BF0000863E00081E00002018B10128EC
:1006F00004D102F05BBD012002F03ABD704710B595
:1007000004464068083001F013FF00B1012020705A
:1007100010BD7047704700000D4810B50068411CBF
:100720000FD00B49040A091D0A680A49130A087008
:100730004C70000C8870CA700B71180A487108461A
:1007400010BD002001F03AFD0028F9D1024810BD8B
:100750008075FF1F18000020803E000830B58BB068
:1007600000250A9503F004F9FFF7D6FF024606219B
:10077000002003F078F84EF66E500990264808AA3B
:100780000621006808902E2003F06DF8234A1021FE
:10079000182003F068F8214A10211032082003F0D5
:1007A00062F81821012003F036F802F0DDFF07AAF5
:1007B00006A9CDE90012012019A405AB07220021EA
:1007C00002F001FE2046FFF72CFDC3B20094002288
:1007D000BDF81810BDF8140002F0E7FF0AA8009059
:1007E00002230022BDF81C10BDF8140002F0DDFF4A
:1007F000002002F0B4FE0C481021CDE90250082080
:10080000CDE90001002301211A460495084602F0B3
:100810001CFE0BB030BD00008075FF1F8E3E00082F
:10082000424C45636F72650007B2010010B54FF08E
:10083000B040D0F89410C1F3007121B9D0F8940001
:10084000C0F34060A0B14FF00054207858B900F0D8
:100850001BF818B1BDE8104001F064BA207810B957
:1008600000F012F840B1207801280BD0022809D0FE
:10087000BDE8104001F066BA0120207007206070CA
:10088000FF20A07010BD70470B480C49D0F8400104
:10089000D1F880100A4AC9B202EB0131B0F1006F01
:1008A00005D3884203D800680649884201D0002059
:1008B0007047012070470000007000080040005899
:1008C000FCFFFF07298A449410B5029C01600021B7
:1008D000C160016141614260816103810477A007C9
:1008E00002D50BB1481E10BD002010BD10B509493E
:1008F000074C096830B101202070002907D0BDE8FD
:100900001040084709B1002088470020207010BD22
:10091000CC0000204C0000207047002001F088B976
:10092000002001F08FB9000008B5FFF7F9FF0220A1
:100930000449C20200900023A1F12000FFF7C4FF88
:1009400008BD0000B8020020704700001FB516481F
:10095000D0F88000022100910907C0B24A780192C4
:10096000062A0ED200200870BFF34F8F0F4801688F
:100970000F4A01F4E06111430160BFF34F8F00BFE4
:10098000FDE7897802911146029A1144814202D909
:100990000199401A029000F0DFF903A9684600F0BF
:1009A00051F900F099F91FBD004000580CED00E02E
:1009B0000400FA05704700001348016889050FD547
:1009C000016821F400710160016841F40061016077
:1009D000016821F400610160016841F40071016067
:1009E000016849050FD5016821F480610160016843
:1009F00041F480510160016821F480510160016877
:100A000041F480610160704700400058024841692C
:100A1000024A114341617047004000580400010040
:100A200004494A6922F4FF6242EAC000024A1043C4
:100A3000486170470040005802000100054910B5A8
:100A40004C6944F001044C610260BFF36F8F436056
:100A500010BD00000040005830B50B4C8023626987
:100A600042F480226261EFF3108272B620C920C086
:100A70005B1E13F0FF03F9D12069C043C003FBD50F
:100A800082F3108830BD00000040005870B5064663
:100A900000F036FA0546164C05E000BF00F030FACB
:100AA000401BB0421DD22069C003F7D42069C107A2
:100AB00001D0012121614CF2FA31014010F0000F08
:100AC00001D0A069A061880000D0216159B1094816
:100AD0004160012070BD00BF00F012FA401BB0421F
:100AE00001D3032070BD20694003F5D4002070BD00
:100AF00000400058400200200248416841F00101D6
:100B000041607047002004E00248416841F0020162
:100B100041607047002004E010B590F825100024D3
:100B2000022903D00421C16301242BE001680A6873
:100B300022F00E020A6001680A6822F001020A60CF
:100B4000816C0A6822F480720A6090F84410036C89
:100B500001F01C01012202FA01F15960D0E91313DE
:100B60004B60416D31B10B6823F480730B60D0E9A9
:100B700016134B6080F82520002180F82410816B2B
:100B800001B18847204610BDF0B4016C0C680168C3
:100B90000D6890F8442002F01C06042202FA06F3C5
:100BA000234211D06B070FD50B689B0603D40B684B
:100BB00023F004030B6090F8441001F01C018A40FC
:100BC000016C4A60016B1DE0022303FA06F727421D
:100BD0004FF0000C4FF0010218D0AF0716D50C688B
:100BE000A40605D40C6824F00A040C6080F82520C3
:100BF00090F8441001F01C018B40016C4B6080F8B0
:100C000024C0C16A00291AD0F0BC08470823B340A9
:100C1000234214D02B0712D50B6823F00E030B6070
:100C200090F84410036C01F01C0102FA01F15960C4
:100C3000C26380F8252080F824C0416BE2E7F0BC55
:100C4000704700002DE9F047064621480F4601781D
:100C500001290ED0012101704FF0000980464FF4A8
:100C60007A7AC0F804905046FFF710FF050003D0D1
:100C700029E00220BDE8F0873068042804D04FF056
:100C8000FF303860746811E0FFF7C0FE5046FFF790
:100C9000FDFE054615E02046FFF7C2FE5046FFF771
:100CA000F5FE050001D03C6005E0641CD6E90101B9
:100CB0000844A042EFD80748416940F2FA729143D4
:100CC0004161FFF779FE88F800902846D2E70000DE
:100CD0004002002000400058054900204A6942F0C7
:100CE00000424A614969002900DB01207047000089
:100CF000004000582DE9F047154C0646154620786F
:100D000098468A4601280AD00120207000274FF417
:100D10007A7948466760FFF7B9FE18B10FE0022004
:100D2000BDE8F087012E0CD029465046FFF794FE0F
:100D30004846FFF7ABFE07494A69B2434A6127704C
:100D4000EEE72A4643465046FFF778FEF0E70000FC
:100D50004002002000400058064900204A69002A4D
:100D600007DA054A8A60054A8A604969002900DA7B
:100D7000012070470040005823016745AB89EFCD43
:100D80002DE9F04FDFF854B100234FF0010C4FF084
:100D9000030A4FF00F090BF1040E97E00CFA03F66B
:100DA00032407DD04C68022C01D0122C0ED1DC08D0
:100DB00000EB8408D8F820405D07EF0E09FA07F52C
:100DC000AC430D69BD402543C8F8205007685D005D
:100DD00091F804800AFA05F408F00308A74308FA1A
:100DE00005F848EA0708C0F800804F68012F05D0D1
:100DF000022F03D0112F01D0122F10D1D0F808806C
:100E0000CF6828EA0408AF4047EA080787604768C8
:100E1000B7430E79C6F300169E403E434660C6684F
:100E2000A6438C68AC403443C4604C68E4004CD5A5
:100E30002B4C23F003052E19B4689D072F0F09FAD8
:100E400007F5AC43B0F1904F04D0264DA84203D132
:100E5000012511E000250FE0234DA84201D1022514
:100E60000AE0224DA84201D1032505E0204DA84209
:100E700001D1042500E00725BD402543B560DBF81E
:100E800000405D464E689443F60300D514432C6041
:100E9000DEF8004075464E689443B60302D500E084
:100EA00013E014432C600D4D803D2C684E68944334
:100EB000F60200D514432C60084D7C3D2C684E682A
:100EC0009443B60200D514432C605B1C0A6832FAC6
:100ED00003F47FF463AFBDE8F08F00008008005892
:100EE000000001400004004800080048000C0048D1
:100EF000001000480AB181617047816270470000AC
:100F00000148806870470000340000200248816872
:100F100042681144816070473400002010B50024FD
:100F2000032000F085F80F2000F008F808B1012434
:100F300001E000F023F8204610BD000070B50E4E11
:100F4000054600247068A0B100F0DAF871684FF42B
:100F50007A72B2FBF1F1B0FBF1F000F0D2F940B9D6
:100F6000102D06D200222946501E00F041F83560AF
:100F700000E00124204670BD3400002070470028A6
:100F800009DB00F01F02012191404009800000F1BF
:100F9000E020C0F88012704700280DDB00F01F022F
:100FA000012191404009800000F1E020C0F880114B
:100FB000BFF34F8FBFF36F8F7047002809DB00F03E
:100FC0001F02012191404009800000F1E020C0F89B
:100FD00000117047002809DB00F01F020121914039
:100FE0004009800000F1E020C0F8001270470000C6
:100FF000F0B40E4B1B680C46C3F30223C3F1070584
:10100000042D00D90425191D072901D2002300E071
:10101000DB1E012606FA05F1491E214099409E403B
:10102000761E16403143F0BC02F09CB90CED00E096
:10103000064900F0070208684FF6FF03184040EA2F
:101040000220034A10430860704700000CED00E0E6
:101050000000FA050D48016821F4804101600C4848
:101060000C490068B0FBF1F03221484307491431C4
:1010700000E0401E0A68920501D50028F9D10868F1
:10108000800501D5032070470020704700040058F8
:101090003000002040420F000248016841F48041C6
:1010A00001607047000400580248016841F48071F3
:1010B000016070470004005810B50C460E49002826
:1010C00008680FD0C043800501D5FFF7E5FF0B4846
:1010D000016821F004010160012C0AD040BF20BF4B
:1010E00020BF10BD8005F2D5FFF7B4FF0028F8D16E
:1010F000EDE730BF10BD00001404005810ED00E013
:1011000010B500F033F84FF0B0418968044A01F09F
:10111000F00102EB91010968B0FBF1F010BD000095
:10112000E03E000810B5FFF7EBFF4FF0B0418968D3
:10113000044A01F4E06102EB9111097801F01F010A
:10114000C84010BD603F000810B5FFF7D9FF4FF051
:10115000B0418968044A01F4605102EB51210978D9
:1011600001F01F01C84010BD603F00082DE9F041AB
:1011700000F030FE204F38B3204C04282CD06600FD
:101180004FF0B045082829D000F033FE022808D0DF
:1011900003282AD000F024FE00F0F00007EB9000B6
:1011A0000468E868E968C0F30620604301F0700253
:1011B000012101EB1212B0FBF2F2E86801EB507072
:1011C000B2FBF0F0BDE8F08100F00AFE00F0F000A4
:1011D00007EB90000068F5E72046F3E72868C0F3C6
:1011E00000500028F8D13046ECE72868C0F30050E2
:1011F0000028D6D13446D4E7203F00080024F4006C
:101200002DE9F041040052D094F82100002620B9C5
:1012100084F82060204600F057F8022084F821006E
:101220002168CA204862216853204862204600F0A5
:10123000DFFFFF2504270028206803D0456284F8DB
:10124000217034E081681F4A1140816021688868FC
:101250006268A369104322691A43104388602168B9
:10126000E068086120680169228941EA0241016160
:101270002068C16821F08001C1602068C16C21F044
:101280000301C164E169606901432068C26C1143D4
:10129000C1642068806880060CD4204600F016F8EF
:1012A00040B12068456284F8217084F820600120F4
:1012B000BDE8F08120684562012084F8210000200B
:1012C000F6E70000BFFF8FFF7047000070B50446CF
:1012D0000068C16821F0A001C160FFF711FE05465A
:1012E0004FF47A7607E000BFFFF70AFE401BB042DA
:1012F00001D9032070BD2068C0688006F4D50020A5
:1013000070BD10B5401EB0F1807F01D3012010BD2B
:101310004FF0E02460610F21601702F023F80020F5
:10132000A06107202061002010BD70477047704702
:10133000704700002DE9F04103680446D869196838
:101340009A6840F60F0528424FF0000509D186063D
:101350007ED501F0200602F080573E4378D0E16E42
:101360009EE0624E624F16400F40374370D0C70771
:1013700009D0CF0507D501271F62D4F8883043F084
:101380000103C4F8883083070AD5D30708D027683B
:1013900002233B62D4F8883043F00403C4F8883059
:1013A00043070AD5D30708D0276804233B62D4F843
:1013B000883043F00203C4F8883003070CD501F0ED
:1013C0002003334308D0266808233362D4F88830DA
:1013D00043F00803C4F8883003050BD54B0109D549
:1013E00026684FF400633362D4F8883043F020035A
:1013F000C4F88830D4F88830002B34D0800609D562
:1014000001F0200002F08051084303D0E16E09B1E1
:1014100020468847D4F8880021688968490602D4A4
:1014200010F0280F21D0204601F092FA2068816840
:10143000490615D5816821F040018160A06F78B11F
:101440002C498163A06FFFF767FB00280BD000E0F9
:1014500011E0A06F816B00E02046BDE8F041084735
:101460002046FFF765FFBDE8F0812046FFF760FFEB
:10147000C4F88850F7E7C60209D5560207D54FF4DD
:10148000801018622046BDE8F041FFF750BF060605
:1014900009D501F0800602F40002164303D0216F43
:1014A0000029D9D1DFE742060DD54A060BD51968C8
:1014B000204621F0400119602021C4F880102567E2
:1014C00000F0DEF8CFE7020206D54A0004D5204638
:1014D000BDE8F041FFF72ABFC001C4D50029C2DA38
:1014E0002046BDE8F041FFF720BF000001000010DA
:1014F000200100043B29000810B5040003D0D4F8F3
:10150000800010B107E0012010BD002084F87C00AD
:10151000204600F027F82420C4F8800020680168E5
:1015200021F001010160204601F024FA0128EBD0EE
:10153000A06A10B1204601F06DF92068416821F4DD
:10154000904141602068816821F02A018160206813
:10155000016841F0010101602046BDE8104001F042
:10156000BDB9000010B586B0044614216846FEF7E8
:101570004DFE13492068884220D14FF0B040016EE3
:1015800041F480410166016E01F480410591C16C16
:1015900041F00101C164C06C694600F00100059092
:1015A0004FF4C06000900220019000200290039050
:1015B000072004904FF09040FFF7E2FB06B010BD0B
:1015C000003801402DE9F8430446D0F880001F465A
:1015D00016460D46202851D1DDB1D6B194F87C00D5
:1015E00001284BD0012084F87C004FF00008C4F89B
:1015F00088802120C4F880001834FFF781FCA6877A
:101600008146E68754F8100C183CB0F5805F03D093
:1016100004E00120BDE8F883206920B12E460025B2
:1016200084F87C8010E00026FAE78021204601F053
:1016300029FDB8B9C6B116F8010B21688862B4F863
:101640005600401EA4F85600B4F856004B464FF022
:10165000000200970028E8D14FF04001204601F039
:1016600011FD30B10320D5E735F8020BC0F30800B7
:10167000E3E72020C4F880000020CBE70220C9E780
:1016800000680449C84204D103484068002800D0DB
:101690000047704700C8FEBF100000207047704729
:1016A000704700000148806800470000500000209B
:1016B0000248416821F0010141607047000C005868
:1016C00038B5074C06E06946064800F0BFFB616884
:1016D00000988847034800F0ADFB0028F3D038BDE0
:1016E000500000202C0A032002494FF4803088600B
:1016F00070470000000C005840BF20BF024801683E
:1017000041F40041016070470C04005808B54FF0E7
:10171000B040016D41F480110165006D00F480104E
:1017200000900848016841F001010160016841F43E
:10173000803101602C20FFF740FCBDE808402D20DF
:10174000FFF73BBC000C005870B5094D044608215A
:10175000284600F015FB30B106480460686820F4A4
:101760000020686070BDA0474FF40020A86070BDE5
:10177000000C00582C00002070B5154C02212046AA
:1017800000F012FB251D38B12868C043800703D53F
:1017900000F036F802200BE00121204600F004FBA7
:1017A00040B12868C043C00704D0FFF789FF01207B
:1017B000A06070BD0821204600F0F6FA0028F8D09D
:1017C0002868C0430007F4D500F042F80820EFE78E
:1017D000000C0058044810B5416841F400314160E4
:1017E00000F004F810BD0000000C00580248C0686A
:1017F00002490068C9680847000003205000002023
:1018000038B5074C06E06946064800F01FFB216921
:1018100000988847034800F00DFB0028F3D038BD3E
:1018200050000020340A03200248416821F00201E0
:1018300041607047000C005804484FF4003181604B
:10184000416821F40031416070470000000C0058ED
:1018500008B506E06946064800F0F8FA009800F07E
:101860009BFF034800F0E6FA0028F3D008BD000013
:101870004C0103200248416821F008014160704793
:10188000000C005870B51E4C0221204600F078FA7A
:10189000251D18B92868C043800308D402212046BA
:1018A00000F06EFA38B92868C043800303D5BDE85C
:1018B0007040FFF78FBF0821204600F061FA70B931
:1018C0002868C04300030AD5606840F400206060C7
:1018D0000C48006880474FF40020A06070BD2021B4
:1018E000204600F04DFA0028F8D12868C043800255
:1018F000F4D5606840F400106060FFF7D3FE70BD5F
:10190000000C00582C0000202DE9F041414CCA2267
:10191000A1600B685A620B6853225A623E4A1368F0
:1019200043F02003136012683B4E02F00702C2F13D
:1019300004030836237032684FF4FE0595FAA5F5C6
:1019400002F4FE02B5FA85F5EA40521CD5B2657084
:101950003268C2F30E02521C6280521E6A43A2F524
:10196000A072DA404FF6FF739A4201D3A38000E0E1
:10197000A2802A4A4FF40023156845F4002515601B
:10198000264A8032156845F400251560A0B1086824
:10199000C068400502D50320FFF71CFBA168FF20AB
:1019A00009684862032100220846FFF721FBBDE8D1
:1019B000F0410320FFF701BB194A01209070801EFF
:1019C00050600020054602F1080600BF00EB40070A
:1019D00006EBC7073D73401CC0B20628F6D30620AD
:1019E00010700868826822F4806282600868C168AA
:1019F00001F0800161F49061C16008480C3003601F
:101A00000320FFF7BCFAA0680068816841F48041B8
:101A10008160C3E704000020082800400008005847
:101A2000DC000020104700002DE9F05FEFF3108488
:101A300072B6CA272D4DA86801684F6202684FF040
:101A40005308C2F8248001688A6822F480628A60A0
:101A5000274991F8009001F1080309EB490203EBD3
:101A6000C20696F80CC0BCF1020F17D00168CA6814
:101A70005207FCD50846C96801F0800161F4906105
:101A8000C1601C494FF40020C1F8000084F31088A5
:101A9000A968FF2009684862BDE8F09F53F832B09A
:101AA000D6F810A08878F0B1707B012810D084F3AC
:101AB0001088484600F060F8A86801684F62006826
:101AC000C0F824805A4649465046FFF7ABFFDFE78F
:101AD0000121484601F01AFC84F3108871684846D9
:101AE00000F00AF8E8E700F0AFFBCFE704000020C1
:101AF000DC0000200C0800582DE9F0410E4680461D
:101B000000EB48011A4800EBC104207B022802D1F7
:101B1000404600F031F8EFF3108572B60320FFF76E
:101B20003BFA144FCA21B868026851620068532119
:101B3000416202202073A6606660404601F0C4FF47
:101B40000B4908390A784978914202D000F07CFBB1
:101B500002E0A168081AA060B968FF20096848621D
:101B60000320FFF72AFA85F31088BDE8F081000012
:101B7000E40000200400002070B50646EFF3108555
:101B800072B60320FFF708FA254CCA21A068026844
:101B90005162006853214162224906EB460001EB85
:101BA000C000007B02280DD10021304601F0AEFBC1
:101BB0001C490839087806280ED04978814201D09E
:101BC00000F042FBA168FF20096848620320FFF78C
:101BD000F4F985F3108870BD13480068C0434005D0
:101BE00004D4A0680068C1684907FCD4A0680168F3
:101BF0008A6822F480628A600168CA685207FCD54C
:101C00000846C96801F0800161F49061C16007492C
:101C10004FF4002008600320FFF7B1F9D2E700007D
:101C200004000020E4000020082800400C080058B0
:101C3000002803D10248406FFEF7A6BF704700009E
:101C400074010020002812D10A48094901604FF4AC
:101C5000E131416000218160C1600C220161C0E975
:101C600005214FF40042C2618162FFF745BC704715
:101C70000038014074010020002802D10148FFF71C
:101C800059BB70477401002070B5002490B90B4D0A
:101C9000094828602846FFF795FC58B1012804D070
:101CA000022804D0032805D103E0012402E0022425
:101CB00000E00324204670BD00380140740100207C
:101CC000FEE77047FFF758BDFFF7DCBD10B5FFF723
:101CD000EBF9FFF7E9F94FF0B04050F8901F21F40D
:101CE000407141F480710160016841F4004101607C
:101CF0000B480A4C0F210460816047F6FF71C160F8
:101D0000FFF77EFACA20606253206062A06820F06C
:101D10000700A060FF20606210BD000000280040A6
:101D200000020020064910B504480860016881F3EC
:101D300008884068804730BF10BD00000070000870
:101D400008ED00E010B5FEF79FFD4FF0005128B1FF
:101D500000200870BDE81040FFF7E4BF01200870C4
:101D600007204870FF20887010BD704708B54FF0FD
:101D7000B041CA6C0243CA64C96C0140009108BDFD
:101D8000C068814301D0002070470120704708B52A
:101D90004FF0B041D1F84C210243C1F84C21D1F8A9
:101DA0004C110140009108BDC069814301D0002061
:101DB000704701207047000000EB8100D0F88000E0
:101DC0000349884201D0012070470020704700007D
:101DD000000400804FF0B040806800F00C007047B5
:101DE0004FF0B040006800F0F000B02800D9B020FB
:101DF00070474FF0B040C06800F0030070470060CB
:101E000040607047EFF3108272B60368C1E900309A
:101E10000160086882F3108841607047EFF3108218
:101E200072B6086043684B604160486882F310886E
:101E300001607047EFF3108172B60268824201D1EF
:101E4000012000E0002081F31088704710B5EFF307
:101E5000108472B602680A60006800F003F884F328
:101E6000108810BDEFF3108172B6D0E900231A601C
:101E700005C881F3108842607047000070B50D4AB4
:101E8000157802F1080401EB410204EBC20300EBF8
:101E9000400204EBC202A94208D01D7D05EB4506B5
:101EA00004EBC60460755175157500E05175187521
:101EB00070BD0000DC0000207047704770470000D4
:101EC0000549096818B1002905D0012008470029F3
:101ED00001D00020FAE77047400000207CB542782E
:101EE0000024411CFF2A2BD14D880A1D00231549CF
:101EF0000D30A5F54065013D02D0162D20D117E02B
:101F00004E885588761CB54203D101248DF80430E3
:101F100006E0C988491C8D4212D1012421460CE0FB
:101F2000009090798DF80500684600F057F807E0BA
:101F30000D7A2DB10B72012403218DF80410EFE707
:101F400020467CBD8C0000202DE9F04186B0204861
:101F500000F0C2FA1F4D082301221F4902200095FC
:101F600001F0ADFB4FF00408A81C0024CDF8008060
:101F7000CDE904400A2601270396CDE90147164A18
:101F8000288843461032022101F03AFB281DCDE992
:101F900004402020CDE90246CDE900040E4A2888FD
:101FA00001232032022101F02BFBA81DCDE9047092
:101FB000CDE90276CDE90084074A2888142330321F
:101FC000022101F01DFB2C7206B0BDE8F08100007B
:101FD000DD1E00088C000020803F00082DE9F84F2E
:101FE00004460079DFF8A4814FF00009B8B1684DCC
:101FF000DFF8A0A14FF4806B012842D0032828D13C
:1020000098F81000444600287ED002212846FFF7A9
:10201000D3FE0028F9D1FEF79FFE57468AE02068DC
:1020200001210278C806082A13D2DFE802F0120460
:1020300014121212122388F81190C8F80000627965
:1020400021684E4645465148491C521EFEF7C3F8CA
:102050002E74BDE8F88F88F81110C8F80000627976
:10206000216845464948491C521EFEF7B4F885F8D8
:102070001090EEE78DF800106946022000F090F80D
:10208000E7E76679002702214148FFF795FE00281F
:10209000F9D1FEF761FE3D4D083527E02068C119F2
:1020A0005819FEF798F850460169C1F3C04100295C
:1020B000FAD1D8E902230120D8F80010FEF71AFE61
:1020C000D8F80010D8E902C0D1E9003283EA0C0345
:1020D000424013430AD10831C8F8001098F8101094
:1020E00088F81090C1F10801761A0F4498F8103062
:1020F000C3F10802B242D1D9FEF7EEFD2448C0F880
:1021000008B0002EA5D000E021E020684446C119A7
:1021100098F8100032462844FEF75DF8207C3044E1
:10212000207496E73869C0F3C0400028FAD1012036
:10213000FEF7E0FD2168D1E90006D4E90223504012
:102140005E403043EED1FEF7C7FDC5F808B0607CB5
:1021500088B101288DD1410781F80090BFF34F8FDE
:102160000D4801680D4A01F4E06111430160BFF3BD
:102170004F8F00BFFDE7002000F07BF9002000F04A
:1021800078F901210020FEF797FFFAE728020020E6
:1021900000140058004000580CED00E00400FA055F
:1021A00008B5054801221346027200918188008813
:1021B000002201F0FAFA08BD8C0000200146074811
:1021C000074B00E00838C2798A4201D09842F9D121
:1021D000D2B28A4200D0002070470000F873FF1F7F
:1021E0000070FF1FFDF7F7BFFEF712B8704770478A
:1021F00070B504460068C168490614D44FF0FF3139
:10220000C160FEF77DFE05464FF47A7607E000BF19
:10221000FEF776FE401BB04201D9032070BD206856
:10222000C0684006F4D5002070BDFFF7FDBB00007C
:10223000044A106881B2106880B2814201D0014620
:10224000F9E77047282800402DE9F041224800684E
:102250002249C0434205886803D40268D3685B07FB
:10226000FCD400688846816821F4806181601C4E3E
:10227000347806F1080704EB440007EBC0008568DA
:1022800000F0AEF800234FF0010C854201D200228D
:102290000AE0B8F8042041460244AA4202D28A88E1
:1022A000B37012E0291A8AB286F802C00DE000BFAE
:1022B00004EB440107EBC1018C68844201D28B60BE
:1022C00002E08C68241A8C604C7D062CF0D1BDE8AD
:1022D000F041104600F042B80828004004000020F9
:1022E000DC00002038B54FF0B044D4F89400C0F3BF
:1022F0008060A0B1D4F89400C0F3007078B9FEF704
:10230000D3FEFEF7D1FED4F8900040F48030C4F83C
:102310009000D4F8900020F48030C4F89000206D34
:1023200040F480102065206D3F2100F48010009063
:10233000094881608161416841F47C1141604169D3
:1023400041F47C114161416841F03F0141604169C4
:1023500041F03F01416138BD000C005870B51C4E82
:1023600004002CD01B4D012C02D82878012801D064
:10237000641EA4B2A8680168CA685207FCD5084662
:10238000C96801F0800161F49061C16012494FF4A5
:10239000002008600320FEF7F2FD104801686FF38B
:1023A0000F0121430160FFF743FF7060A8680068D8
:1023B000816841F480618160AFF3008070BDFFF7F8
:1023C00037FF7060BDE870400320FEF703BE0000D9
:1023D000DC000020040000200C08005814280040F5
:1023E00010B50B4C6068401C10D0FFF721FF6268ED
:1023F0000849824202D36268101A03E04A88101A20
:10240000626810444A7809785043C84080B210BDD1
:10241000DC000020040000201FB500F10C026B4618
:1024200021214FF6664001F03DFC9DF80E0004B0FE
:1024300010BD1FB500F10C026B460F214FF668402E
:1024400001F030FC9DF80E0004B010BD1FB50A4627
:10245000002108B1042100900AB1091D01926B46C8
:102460001A464FF6544001F01DFC9DF80E0004B0D2
:1024700010BD1FB5044600226B4611464FF6524070
:1024800001F010FC14B19DF80F0020709DF80E00B3
:1024900004B010BD1FB500226B4611464FF65A40DE
:1024A00001F000FC9DF80E0004B010BD10B540789E
:1024B000052801D1FEF7FEF8012010BD044910B532
:1024C00000200877091F087000F010F810BD000008
:1024D0009C0000207047000003490A7F41F8220059
:1024E000087F401C087770479C00002010B5FEF75D
:1024F00010F9FEF7C8F9FEF70FFAFEF75BFAFFF7DF
:10250000CDF8FFF7CCF8FFF7CBF8FFF7DAFBFFF7D2
:102510002CFC00F053F9FFF7D0FCFFF767FEFFF744
:1025200013FDFEF7F7F8FFF7C7FCFFF7D3FF10BD69
:1025300070B50646441C4078FF2819D1608800F425
:102540007F40B0F5406F13D100250D4C0DE000BF6A
:1025500054F825103046884728B1012802D00228B7
:102560000BD0012070BD6D1CEDB2207FA842EFD8CA
:102570003046BDE87040FFF799BF002070BD0000F5
:102580009C0000207047000038B5084C08E0694600
:102590000748FFF75BFC206900990069FFF73EFCE4
:1025A0000348FFF747FC0028F1D038BD00000320A6
:1025B00064000020002201E0521C92B2815C0029DC
:1025C000FAD1642301460020FFF75EBBFEF79EBCF4
:1025D00010B5FEF72BF91E48016841F47001016047
:1025E0000020FFF7EBFD4FF0B04158B18079194A58
:1025F000C1F89C20D1F89C2022F47C5242EA0020B1
:10260000C1F89C00086840F48030086012480268F5
:1026100022F0070242F001020260026802F00702A3
:10262000012AFAD10868C0F340400028FAD088682F
:1026300020F0030040F002008860886800F00C0081
:102640000828FAD1086820F00100086010BD0000D9
:1026500088ED00E0FECAFECA0040005810B50446EE
:102660000B48FFF7CCFB0B484168A0680860E068A6
:10267000C86007481030486010388860FFF718F8C5
:1026800005482168416061688160002010BD00003C
:102690002C0A03200000032050000020044910B53C
:1026A0004968012009680872FFF71EF8002010BD74
:1026B00000000320FFF720B80B480A4901602031D1
:1026C000416010318160503901620831C16054317C
:1026D0000161603941617C3181610C31C161FFF779
:1026E00015B80000540103200000032010B5014676
:1026F0000348FFF793FBBDE810400248FFF724B8FA
:10270000640000208925000810B504460C48FFF736
:1027100076FB0C48FFF773FB0B4801690948143836
:102720000160A0688860E068C860054808612068AA
:10273000086060684860206948616069886110BD10
:1027400044010320640000200000032010B504466B
:102750000848FFF754FB0848C168A06808600548AE
:102760004860FFF761F805482168C1606168016150
:10277000002010BD340A0320000003205000002078
:10278000044910B5C968102009680872FFF754F8A9
:10279000002010BD000003207047000010B5054860
:1027A000FFF72DFB0449034849690860BDE8104064
:1027B000FFF760B84C0103200000032070470020A1
:1027C00001F030BA10B5417A0F290AD00E2908D08D
:1027D00001460848FFF722FBBDE81040054801F01C
:1027E000B9B801460448FFF719FBBDE810400020C6
:1027F00001F082B8C40000204400002010B501465A
:102800000348FFF70BFBBDE81040014801F03CBA5C
:10281000D400002090F82810C90706D001684A6843
:10282000C36A22F400321A434A6090F828108907DC
:1028300006D501684A68036B22F480321A434A6065
:1028400090F82810490706D501684A68436B22F4BE
:1028500080221A434A6090F82810090706D50168BB
:102860004A68836B22F400421A434A6090F82810A9
:10287000C90606D501688A68C36B22F480521A43E0
:102880008A6090F82810890606D501688A68036C6A
:1028900022F400521A438A6090F82810490611D594
:1028A00001684A68436C22F480121A434A60416C02
:1028B000B1F5801F06D101684A68836C22F4C0021A
:1028C0001A434A6090F82810090606D501684A683C
:1028D000C06C22F4002202434A607047F8B500261B
:1028E0000446C0F88860FEF70BFB054620680068C8
:1028F0006FF07E47000708D52B4600224FF40011E9
:102900002046009700F0BEFB60B9206800684007D1
:102910000AD52B4600224FF480012046009700F094
:10292000B1FB08B10320F8BD2020C4F88000C4F832
:10293000840084F87C600020F8BD10B5806A002116
:10294000A0F85E10A0F85610FEF7F2FC10BD0000D3
:1029500001680A6822F490720A6001688A68044B70
:102960001A408A602021C0F884100021C166704797
:10297000FEFFFFEF2DE9F05F044600682369A168C0
:10298000E5691943636900272B431943636EFA4ACB
:102990000B430168F94D29401943016020684168E3
:1029A000E36821F44051194341602368A0699342D0
:1029B00001D0216A08439968F14D2940014399608B
:1029C0002068C16A636A21F00F011943C162ED4BAF
:1029D00020684FF0B04198420DD1D1F8881011F025
:1029E000030106D001291DD0022919D003291BD1CA
:1029F00012E0012619E0904216D1D1F888104FF468
:102A0000406311F4406109D0B1F5806F0AD0B1F58F
:102A1000006F05D0994207D1082606E0002604E0A1
:102A2000022602E0042600E01026DFF85CA34FF443
:102A300080754FF000094FF4004B90426FD136B1D2
:102A4000022E22D0042E52D0082E69D16FE0FEF75C
:102A500069FB4EE0012852D0022852D0032852D000
:102A6000042852D0052852D0062852D0072852D028
:102A7000082852D0092854D00A2854D00B2854D002
:102A80003BE000BFB1FBF0F06CE0606AA8B1012848
:102A900017D0022817D0032817D0042817D00528EC
:102AA00017D0062817D0072817D0082817D00928CC
:102AB00017D00A2817D00B2817D00120BAFBF0F046
:102AC00050E00220FAE70420F8E70620F6E70820A5
:102AD000F4E70A20F2E70C20F0E71020EEE72020D0
:102AE000ECE74020EAE78020E8E72846E6E7FEF743
:102AF0003DFB0146606A0028ACD10120C2E70220FC
:102B0000C0E70420BEE70620BCE70820BAE70A2099
:102B1000B8E70C20B6E71020B4E72020B2E717E1B1
:102B200042E04020AEE78020ACE72846AAE7606A92
:102B3000A8B1012822D0022822D0032822D00428BC
:102B400022D0052822D0062822D0072822D0082803
:102B500022D0092822D00A2822D00B2822D00120F6
:102B6000BBFBF0F0002820D06168884601EB4101F2
:102B7000814219D8B0EB083F16D817E00220EFE7E2
:102B80000420EDE70620EBE70820E9E70A20E7E765
:102B90000C20E5E71020E3E72020E1E74020DFE715
:102BA0008020DDE72846DBE7012723E27EB3022E03
:102BB0007ED0042E73D0082EF6D1606AA8B1012809
:102BC0006ED002286DD003286CD004286BD0052865
:102BD0006AD0062869D0072868D0082867D0092855
:102BE0007ED00A287DD00B2800D001252A464E46EB
:102BF000002358460021FDF7BDFA090241EA1061A1
:102C000002024FEA58001018714142463DE0FFE7CA
:102C1000FEF788FA83E0012815D0022815D0032892
:102C200015D0042815D0052815D0062815D007285A
:102C300015D0082815D0092815D00A2815D00B283A
:102C400014D0012512E0022510E004250EE006252F
:102C50000CE008250AE00A2508E00C2506E010250E
:102C600004E0202502E0402500E0802500230846FE
:102C70002A464E461946FDF77DFA0902626841EA86
:102C8000106103025008181871410023FDF772FA11
:102C90003E4AA0F5407191427AD985E708E03CE0D0
:102CA00042E043E044E045E046E047E048E049E0F8
:102CB000606AC0B101281CD002281CD003281CD097
:102CC00004281CD005281CD006281CD007281CD09E
:102CD00008281CD009281CD00A281CD00B2801E089
:102CE00032E033E000D001252A464E46002350460C
:102CF00080E70225F8E70425F6E70625F4E708252E
:102D0000F2E70A25F0E70C25EEE71025ECE7202591
:102D1000EAE74025E8E78025E6E7FEF727FA0146DF
:102D2000606A00288DD076E702255FE704255DE71D
:102D300006255BE7082559E70A2557E70C2555E7DF
:102D4000102553E7202551E740254FE780254DE723
:102D5000E0694FF6EF7858457ED1012E2FD0022E34
:102D60005ED0042E79D0082E97D1606A18B301285E
:102D700074D0022873D00CE000800040F369FFCFCC
:102D8000FFF4FF11003801400024F400FFFC0F00A5
:102D90002EE1032879D0042878D0052877D006289A
:102DA00076D0072875D0082874D0092873D00A284F
:102DB00072D00B2800D00125BBFBF5F04BE0FEF7ED
:102DC000C3F980E0012815D0022815D0032815D0BA
:102DD000042815D0052815D0062815D0072815D0A9
:102DE000082815D0092815D00A2815D00B2814D08A
:102DF000012512E0022510E004250EE006250CE076
:102E000008250AE00A2508E00C2506E0102504E064
:102E1000202502E0402500E08025B1FBF5F01AE016
:102E2000606AA8B1012838D0022838D0032838D0E9
:102E3000042838D0052838D0062838D0072838D0BC
:102E4000082838D0092838D00A2838D00B2800D0D4
:102E50000125BAFBF5F003E04EE032E038E039E05E
:102E60004100606801EB5001B1FBF0F080B2A0F1CD
:102E7000100141453FF611AF4FF6F0710140C0F32C
:102E8000420001432068C160B4E025E026E027E06D
:102E900028E029E02AE02BE02CE00225D9E70425F0
:102EA000D7E70625D5E70825D3E70A25D1E70C257E
:102EB000CFE71025CDE72025CBE74025C9E78025C2
:102EC000C7E7FEF753F90146606A002890D079E71A
:102ED000022571E704256FE706256DE708256BE7F6
:102EE0000A2569E70C2567E7102565E7202563E7D4
:102EF000402561E780255FE7012E22D0022E51D0C8
:102F0000042E7DD0082E7FF4C8AE606AA8B10128D7
:102F100077D0022876D0032875D0042874D00528ED
:102F200073D0062872D0072871D0082870D00928DD
:102F30006FD00A286ED00B2800D00125BBFBF5F11D
:102F40004BE0FEF701F983E0012815D0022815D0E7
:102F5000032815D0042815D0052815D0062815D02B
:102F6000072815D0082815D0092815D00A2815D00B
:102F70000B2814D0012512E0022510E004250EE0F4
:102F800006250CE008250AE00A2508E00C2506E0E5
:102F9000102504E0202502E0402500E08025B1FB5B
:102FA000F5F11AE0606AA8B101283BD002283BD0B5
:102FB00003283BD004283BD005283BD006283BD033
:102FC00007283BD008283BD009283BD00A283BD013
:102FD0000B2800D00125BAFBF5F1606801EB500128
:102FE000B1FBF0F080B2A0F1100141453FF655AEC3
:102FF0002168C8600120A4F86A0024F8680F0AE07C
:1030000024E02AE02BE02CE02DE02EE02FE030E061
:1030100031E032E033E0C4F804903846C4F8089058
:10302000BDE8F09F0225D6E70425D4E70625D2E7C0
:103030000825D0E70A25CEE70C25CCE71025CAE7FE
:103040002025C8E74025C6E78025C4E7FEF78EF8AF
:103050000146606A00288DD076E702256EE70425D8
:103060006CE706256AE7082568E70A2566E70C2568
:1030700064E7102562E7202560E740255EE78025AC
:103080005CE700002DE9F0479A4617460E460446D5
:103090004FF000094FF02008089D39E0681C37D038
:1030A000FDF72EFFA0EB0A00A84222D80DB320683E
:1030B000016849072CD5C069C043000528D42168A0
:1030C0004FF4006008622068016821F4D07101604B
:1030D0002068816821F001018160C4F88080C4F813
:1030E0008480C4F8888000BF84F87C900320BDE809
:1030F000F0872068016821F4D07101602068816840
:1031000021F001018160C4F88080C4F88480EBE77D
:103110002068C06936EA000004D00020B842BDD063
:103120000020E4E70120F9E70020FEF7A5BD00003C
:103130000248002101604160704700006C000020DF
:10314000EFF3108272B6064B21B1012905D15968FF
:10315000014301E059688143596082F31088704748
:103160006C0000204FF0FF3000F02CB870470000DA
:10317000EFF3108172B6034A5368834381F31088DA
:1031800053607047740000207047704770B5154653
:10319000EFF3108472B600F097FB034941F820501A
:1031A00084F3108870BD0000C8120020EFF3108176
:1031B00072B6034A5368034381F310885360704723
:1031C000740000202DE9F041324C334D4FF00108DE
:1031D000A6683040A0603AE0002200EA030100E067
:1031E000521C55F832700F42FAD055F83210184080
:1031F00005EBC20701407868084201D0786802E018
:103200004FF0FF307860084000F05EFB60617B6843
:1032100008FA00F293437B60EFF3108372B62768DD
:1032200008FA00F197430222C4F8007005EBC207C8
:10323000521E57F808CC2CEA010C47F808CCF5D1FF
:1032400083F310881449103151F820008047D4E9E5
:103250000010A3680140194203D0D4E903121142BF
:10326000BAD0FFF792FFEFF3108572B6D4E90001F0
:103270000840A1680840D4E903121140084301D175
:10328000FFF774FF85F31088FFF77EFFA660BDE8A7
:10329000F081000074000020B8120020EFF31081CC
:1032A00072B6034AD368034381F31088D360704732
:1032B0007400002010B5EFF3108272B6064B1C6844
:1032C00004431C60054B53F83140044343F831403C
:1032D00082F3108810BD000074000020B812002096
:1032E00070B5094C0126217D25698E40206102E0E0
:1032F0003046FFF737FFD4E903010842F8D0E06811
:103300008843C4E9030570BD7400002070B5144CF7
:10331000257804F1080300EB400203EBC202A84247
:1033200004D120786070507D20700FE0157D507DB5
:10333000567D05EB450503EBC5056E75062805D0E2
:10334000157D00EB400003EBC000057501201073F4
:103350002078062803D1002901D1C01F606070BD0C
:10336000DC0000200907090E002804DB00F1E02042
:1033700080F80014704700F00F0000F1E02080F8A2
:10338000141D7047BFF34F8F05480168054A01F4CB
:10339000E06111430160BFF34F8F00BFFDE7000004
:1033A0000CED00E00400FA0502E008C8121F08C195
:1033B000002AFAD170477047002001E001C1121FB6
:1033C000002AFBD170472DE9F043C9B01546DDE96D
:1033D00050890E4607461C460722002140A8FEF7EA
:1033E00003FF8DF800708DF801608DF80250032501
:1033F0001822002142A8FEF7F7FE3F20ADF8080191
:103400008A20ADF80A016846CDE9440540A84690F7
:1034100007204790002142A800F0CAFA002803DAEA
:10342000FF2049B0BDE8F0839DF800010028F8D1E5
:10343000BDF801012080BDF80311A8F80010BDF807
:103440000511A9F800100020EBE7F0B5C7B04CACAF
:1034500094E8E05000248DF818418DF800008DF8B4
:1034600001108DF802208DF804508DF805608DF85C
:1034700003308DF80670CDF807C08DF80BE00C24F2
:103480001822002140A8FEF7AFFE3F20ADF8000152
:103490008620ADF802016846CDE9420446A8449072
:1034A00001204590002140A800F082FA002802DAAD
:1034B000FF2047B0F0BD9DF81801FAE72DE9F04F65
:1034C000CBB08446DDE954A4DDE956B74FF00008DF
:1034D0008DF818818DF800C0ADF80110ADF803200B
:1034E0000DEB0406684606F108058DF805308146A7
:1034F0003E448DF806A08DF807402246594602A8A2
:103500000936FEF76FFE2F703A46681C0934589949
:10351000FEF768FE599830805A983C447080182213
:10352000002140A8241DFEF75FFE3F20ADF80001FA
:103530008320ADF8020146A8CDF80891CDE94340BB
:1035400001204590002140A800F032FA002803DA5B
:10355000FF204BB0BDE8F08F9DF81801F9E710B5DA
:10356000C8B000218DF818118DF800000124182230
:1035700040A8FEF739FE3F20ADF800018520ADF8E8
:1035800002016846CDE9420446A8449001204590D6
:10359000002140A800F00CFA002802DAFF2048B011
:1035A00010BD9DF81801FAE710B5C8B00446002216
:1035B0008DF818218DF8004022460DF10100FEF72C
:1035C00011FE1822002140A8641CFEF70DFE3F20CA
:1035D000ADF800018E20ADF802016846CDE9420445
:1035E00046A8449001204590002140A800F0E0F951
:1035F000002802DAFF2048B010BD9DF81801FAE754
:103600002DE9FF4FC7B09946DDE957BA0C46804611
:103610006F46012916D0022C16D000203E4685198F
:103620000322002140A8ED1CFEF7DEFDADF800806E
:103630008DF80240012C09D0022C09D047204BB054
:10364000BDE8F08F0220E9E71020E7E7022400E060
:1036500010242246F81C4999FEF7C4FDA5F80090F5
:103660005498A8705598E8705698287185F805B058
:1036700085F806A01822002141A80A34FEF7B4FDFF
:103680003F20ADF804014FF48270ADF8060140A868
:10369000CDE94440032046904396002141A800F024
:1036A00087F9002801DAFF20C9E79DF8000100280A
:1036B000C5D15998BDF8011101800020BFE72DE95F
:1036C000F04FC7B09946DDF840A190468B460446BE
:1036D0006F46012814D0022C14D000203E468519D4
:1036E0000322002140A86D1CFEF77EFD8DF80040EE
:1036F000012C09D0022C09D0472047B0BDE8F08F3B
:103700000220EBE71020E9E7022400E01024224623
:103710005946781CFEF766FD85F8008085F8019013
:103720001822002141A8E41CFEF75EFD3F20ADF801
:1037300004014FF48170ADF8060140A8CDE9444082
:10374000032046904396002141A800F031F900285B
:1037500001DAFF20D1E79DF800010028CDD1BDF8A6
:103760000111AAF80010C8E700B587B000208DF855
:1037700000000146182201A8FEF736FD3F20ADF8F3
:10378000040040F20110ADF8060001200690CDF8CB
:1037900014D0002101A800F00BF9002802DAFF2064
:1037A00007B000BD9DF80000FAE770B5C8B01C4630
:1037B000034600264C9D8DF81861ADF800308DF859
:1037C0000420ADF802108DF80540224629460DF17F
:1037D0000600FEF707FD1822002140A8A41DFEF7F1
:1037E00003FD3F20ADF800014FF48370ADF80201F6
:1037F0006846CDE9420446A8449001204590002146
:1038000040A800F0D5F8002802DAFF2048B070BDCB
:103810009DF81801FAE710B5C8B000228DF81821FC
:103820008DF800008DF8011002241822002140A814
:10383000FEF7DAFC3F20ADF800010F20ADF80201E1
:103840006846CDE9420446A84490012045900021F5
:1038500040A800F0ADF8002802DAFF2048B010BD03
:103860009DF81801FAE710B5C8B013460C460022BF
:1038700001468DF818218DF800108DF80140224680
:1038800019460DF10200FEF7ADFC1822002140A8F8
:10389000A41CFEF7A9FC3F20ADF800010C20ADF8F8
:1038A00002016846CDE9420446A8449001204590B3
:1038B000002140A800F07CF8002802DAFF2048B080
:1038C00010BD9DF81801FAE70021020C01D110216A
:1038D0000004020E01D100020831020F01D10001E3
:1038E000091D044A02EB107000780844C0F11F0063
:1038F00070470000C03F00080120FFF7CFBC012047
:10390000FFF7EEBC7FB50F4A0D460F4C49681160BA
:10391000E061204600F022F80A482D68001DFEF7FD
:103920006EFA0A4E06F108007560FEF768FA01208B
:1039300030702168002904D005480090029568463F
:1039400088477FBD4000002058020020BC000020B6
:10395000C527000800210120FFF7ACBC0249016027
:1039600002490161704700005D2600089D2600089D
:1039700000B587B000208DF800000146182201A88C
:10398000FEF732FC0320ADF80400ADF8060001207C
:103990000690CDF814D0002101A800F009F8002805
:1039A00002DAFF2007B000BD9DF80000FAE7000032
:1039B0002DE9F84305460020FEF782FA2988688839
:1039C0002A7B61F39F2086B22348A96800274068BC
:1039D000A0F80960C2720C30FCF7FDFB1F48002103
:1039E00002690846904748F2E8084046FFF787FF1B
:1039F0001BE069461A48FEF729FA0098417A0F2918
:103A000020D0818900F10B04B1420BD1807A6A6920
:103A1000C01EC0B2824200DD02466A61E11C286914
:103A2000FCF7D9FB207800B101270D48FEF702FA18
:103A30000028DED0002FD8D00120FEF741FA002068
:103A4000BDE8F883B0F80D100B30B14202D12A69FD
:103A5000017811704078E6E7BC0000205802002091
:103A6000440000203EB51648FEF7E4F9144C083C2B
:103A7000D0B92078C0B169461148FEF7E7F90120B6
:103A800020701048C16939B10098029001A8884798
:103A90009DF80400207018B10098FEF727FE03E09F
:103AA00007480099FEF7AEF90548FEF7C3F900286C
:103AB00005D12078002802D00148FFF74BFF3EBD1A
:103AC000C4000020580200202DE9F041284C064691
:103AD000217804F1080800EB460208EBC20506292C
:103AE00011D0FEF77DFC0746A96840463944A9601D
:103AF000AB68217801EB410108EBC101896899426B
:103B000021780ED92BE02078607026700620687529
:103B1000C01F6060002728E001EB410100EBC101FC
:103B2000497D01EB410200EBC202527D062A06D01C
:103B300002EB420200EBC20292689A42ECD901EB1E
:103B4000410200EBC2035A7D062A04D002EB420474
:103B500008EBC40006756A7529755E7505E0304688
:103B6000FEF78CF92078607026703846BDE8F08149
:103B7000DC000020FDF7D2F9FEF7B4FBFDF794FA64
:103B8000FDF792FA4FF0B040D0F8901041F00101EB
:103B9000C0F89010D0F89010C1F340010029F9D07E
:103BA00050F8941F21F4404141F4804101601648CF
:103BB0004FF0FF34016800210160134810300168A4
:103BC00001F050010160FEF781F80020FEF73AF89D
:103BD0000E48FEF7EFFC0E48FEF7ECFC0D48FEF732
:103BE000E9FC0D48FEF7E6FC0A48FEF7E3FC07484F
:103BF000FEF7E0FC09A0FEF7DDFCFCF70BFC20461D
:103C0000FFF7E0FAFBE7000080080058B440000826
:103C10001C400008D03F0008684000080D0A0D0A4B
:103C2000000000000220FFF739BB0220FFF758BB5D
:103C3000FEB5104A0D46104C49681160E0612046FF
:103C400000F026F80D4E2D6806F108007560FEF7AD
:103C5000D6F80120FCF74AFE012070702168002987
:103C600006D0074800900748CDE901056846884717
:103C7000FEBD00004C00002078020020CC00002097
:103C8000BF270008FD27000800210220FFF712BB14
:103C90000249016002490161704700004D27000898
:103CA000812700082DE9F04106461D4617460C46BF
:103CB0000020FCF71BFE31460F4E22467068A0F82C
:103CC0000910C47239460C30FCF785FA0B48002104
:103CD00002690846904748F2E800FFF7A6FF7168BE
:103CE00005F108008A78D21CFCF775FABDE8F041AE
:103CF0000120FCF7FBBD0000CC0000207802002072
:103D00003EB51648FEF796F8144C083CD0B96078DA
:103D1000C0B169461148FEF799F80120607010485B
:103D2000C16939B10098029001A888479DF8040044
:103D3000607018B10098FEF7D9FC03E007480099BD
:103D4000FEF760F80548FEF775F8002805D16078A1
:103D5000002802D00148FFF797FF3EBDD4000020A5
:103D60007802002000000048010000000000004828
:103D700001000000000000480100000000000048B1
:103D800001000000000000480100000000000048A1
:103D90000100000000000048010000000000004891
:103DA0000100000000000048010000000000004881
:103DB0000100000000000048010000000000004871
:103DC0000100000000000048010000000000004861
:103DD0000100000000000048010000000000004851
:103DE0000100000000000048010000000000004841
:103DF0000100000000000048010000000000004831
:103E00000100000000000048010000000000004820
:103E10000100000000000048010000000000004810
:103E20000100000000000048010000000000004800
:103E300001000000000000480100000000000048F0
:103E400001000000000000480100000000000048E0
:103E500001000000000000480100000000000048D0
:103E60000100000000000000000000000000000051
:103E7000643D0008240A0320280A032020040400CB
:103E80006C7AD8AC57720953544D5F4F5441123479
:103E900056789ABCDEF0123456789ABCDEF0FEDC1E
:103EA000BA0987654321FEDCBA0987654321000012
:103EB0000000000000000000000000000000000002
:103EC0000000000044000800400508013A799C0009
:103ED000F4010000FFFFFFFF4801010000000000A7
:103EE00001000000030000000500000001000000C8
:103EF00001000000060000000A0000002000000091
:103F00000200000004000000080000001000000093
:103F100040000000800000000001000000020000DE
:103F2000A0860100400D0300801A060000350C0039
:103F300040420F0080841E0000093D0000127A00FC
:103F40000024F40000366E010048E801006CDC0239
:103F50000000000000000000000000000000000061
:103F60000000000000000000000000000000000051
:103F70000100000002000000030000000400000037
:103F80008FE5B3D52E7F4A982A487ACC20FE0000D0
:103F900019ED82AEED214C9D4145228E22FE00009E
:103FA00019ED82AEED214C9D4145228E23FE00008D
:103FB00019ED82AEED214C9D4145228E24FE00007C
:103FC00004030202010101010000000000000000E2
:103FD0000D0A3D20202020202020202020202020ED
:103FE00020202020202020202020202020202020D1
:103FF00020202020202020202020202020202020C1
:1040000020202020202020202020202020202020B0
:10401000202020202020203D000000000D0A3D200F
:10402000202020202020202020202020202843295C
:1040300020434F505952494748542032303139209B
:1040400053544D6963726F656C656374726F6E690A
:1040500063732020202020202020202020202020CA
:104060002020203D000000000D0A3D20202020538C
:10407000544D33327762787820424C45204F54417A
:104080002050726F6772616D6D696E67204170704C
:104090006C69636174696F6E20202856657273695C
:1040A0006F6E20312E302E30292020202020203D00
:1040B000000000000D0A3D3D3D3D3D3D3D3D3D3D87
:1040C0003D3D3D3D3D3D3D3D3D3D3D3D3D3D3D3D20
:1040D0003D3D3D3D3D3D3D3D3D3D3D3D3D3D3D3D10
:1040E0003D3D3D3D3D3D3D3D3D3D3D3D3D3D3D3D00
:1040F0003D3D3D3D3D3D3D3D3D3D3D3D00000000E4
:104100003041000804000020700100009402000803
:1041100044410008000003204C0A000094020008FB
:104120004441000874010020D4210000B833000885
:10413000011AF50DFF018613093D3210023F015AA5
:10414000FF0101F401FF01FF01FF01FF01FF01FF7A
:0C41500001FF01FF01FF01FF015600000C
:040000050800013DB1
:00000001FF
